:020000040800F2
:1000000090080020F9010008D9250008892100087E
:10001000D5250008871F0008DB2A00080000000023
:100020000000000000000000000000007D28000823
:10003000FF1F000800000000D127000891290008D8
:10004000130200081302000813020008130200083C
:10005000130200081302000813020008130200082C
:10006000130200081302000813020008130200081C
:10007000130200081302000813020008130200080C
:1000800013020008130200081302000813020008FC
:1000900013020008130200081302000813020008EC
:1000A00013020008130200081302000813020008DC
:1000B00013020008130200081302000813020008CC
:1000C00013020008130200081302000813020008BC
:1000D00013020008F52900081302000813020008A3
:1000E000130200081302000813020008130200089C
:1000F000130200081302000813020008130200088C
:10010000130200081302000813020008130200087B
:10011000130200081302000813020008130200086B
:10012000130200081302000813020008130200085B
:1001300000F002F800F051F80AA090E8000C8244A8
:100140008344AAF10107DA4501D100F046F8AFF285
:10015000090EBAE80F0013F0010F18BFFB1A43F0A5
:10016000010318472838000048380000103A24BF1F
:1001700078C878C1FAD8520724BF30C830C144BF0C
:1001800004680C607047000000230024002500264E
:10019000103A28BF78C1FBD8520728BF30C148BFEA
:1001A0000B607047662903F02683002070471FB557
:1001B0009DE8030000F078F900F036FC0400002010
:1001C000002102F0E9FE401C60600020002102F0E6
:1001D000CDFEE0601FBD10B510BD00F06BFD1146F7
:1001E000FFF7E5FF02F0C2FD00F0E4FF03B4FFF704
:1001F000F2FF03BC02F0F4FC0948804709480047BD
:10020000FEE7FEE7FEE7FEE7FEE7FEE7FEE7FEE7C6
:10021000FEE7FEE704480549054A064B7047000023
:100220009529000831010008900200209008002064
:10023000900400209004002070B5064600F018F9E4
:10024000056806F10B0020F00704B4429CBF0020B3
:1002500070BD2B466A68BAB11068A04210D304F191
:10026000080188423CBF5068586007D35168101994
:1002700041601168091B016058601460101D70BD59
:1002800013465268002AE7D12146284600F0F8F8C4
:100290000028DED170BD70B50446051F00F0E8F8F7
:1002A0000068002C14BF446870BD002C18BFAC421D
:1002B0003CBF20466468F8D301680A18AA4218BFF8
:1002C000456003D12A680546114401602868411938
:1002D000A1421CBF6C6070BD616869602168084400
:1002E000286070BD0FB41CB5074B06AA7B44694655
:1002F0000090059800F02BFB0020694600F03AFBC7
:100300001CBC5DF814FB00008506000070B50446B7
:1003100085690068C10601D5302600E02026C007A7
:1003200007D070BDD4E9012130469047206A401CB7
:1003300020626D1EF6D570BD70B5044685690078E3
:10034000C00707D170BDD4E9012120209047206A61
:10035000401C20626D1EF6D570BD2DE9F0474FF0B0
:10036000000A89460446C0F820A02046E168884774
:10037000002876D0252806D0D4E901219047206AAC
:10038000401C2062F1E7E168204600258847C4F858
:100390001CA006460027C4F818A02A2E09D0304613
:1003A00002F017FC38B304EB8708303EC8F8186039
:1003B00019E059F8041B204604EB87029161E168BB
:1003C0008847012F064618D1E069002820DA25F079
:1003D00020051DE0D8F8180000EB800006EB400077
:1003E0003038C8F818002046E1688847064602F011
:1003F000F0FB0028EED1012F0AD02E2E08D1204686
:10040000E16888477F1C0646022F45F02005C4DBC3
:10041000A069002803DA404245F00105A061E80721
:1004200001D025F01005B6B1A6F14100192802D877
:10043000203645F400654A463146204625604D4643
:10044000FFF7B0FE58B1012806D0ED1D25F00700DA
:1004500000F1080989E704E005F1040985E7304661
:100460008AE7206ABDE8F087704770477047000050
:10047000004870473402002070477047704770474B
:1004800038B504460A4600206946AFF300800028CC
:1004900008BF38BD02460099204600F0CDFA012081
:1004A00038BD012000F0FEBBF8B5AFF30080054673
:1004B00000200C46102000BF0646A819A0420DD906
:1004C000324669460020AFF30080070008BF00F005
:1004D000E9FB0098A04218BF0546C419FFF7C8FF02
:1004E00005600746F01D20F007004619284600F079
:1004F0000AF8B44208BFF8BDA21B31463868BDE80F
:10050000F84000F099BA00210160C0E9011070477D
:100510001020704710B500F08BFA006810BD10B5C0
:10052000044600F085FA046010BD70472DE9FF4FC6
:100530000C461E464FF0FF378BB0D2E90001DDF8C4
:1005400060800A908A46C1F30A5505B93D460021EC
:1005500008464FF00000BAF1000F00F4400005DA41
:1005600000EB80004FF4400101EA50004FEA90593F
:10057000B9F1010F00DDB9460A9850EA4A000ED0E1
:1005800044F61050A5F2FF3545432F14B8F1000F83
:100590001ED07542291E1EDDC9F100021CE0B8F113
:1005A000010F4FF0000001D0302103E0F24305E0DD
:1005B0002154401CB042FBDB304600220021215474
:1005C0000B99C1F80880C1E900200FB0BDE8F08F99
:1005D000BD1B6D1CDEE74A4600DA694206A800F042
:1005E000F3FA06AB93E8070003AB83E80700504635
:1005F0000A9901F0BAF88DE80700A0F500501F38FD
:1006000000900398002D09DD42F21F014A4608447C
:1006100003A90390684601F044FB08E0A0F50050F0
:100620004A461F3803A90390684601F062FB8DE833
:1006300007000004000C03D04FF0FF30410800E039
:100640001046B8F1000F03D00022009215461EE0BC
:10065000751E05D400F00AFA303262556D1EF9D5C8
:10066000B3460122084302D000227F1C04E0207818
:10067000302801D100227F1E002A099786D01DE074
:10068000112D07DA00F0F2F9303262556D1C50EA94
:100690000102F5D1084302D00098C8B10EE0002154
:1006A000681E05E0235C625C63542254401E491CB2
:1006B0008142F7DBAB46A81B401E0990002004F8DE
:1006C0000B000B98099AC0F80880C0E9002B7CE762
:1006D00011264FF0000859E72DE9F04F88460446EF
:1006E000D21D22F0070191B0D1E90001CDE90A0144
:1006F00002F0F5F902460B98C00F01D02D2007E05B
:100700002068810701D52B2002E0202101EAC000EA
:10071000032A099001D0072A05DB034641462046FB
:1007200000F0F2F90BE12078800601D5E06900E0E5
:100730000620B8F1650F814606D0B8F1660F18D0D3
:10074000B8F1670F70D131E00020B9F1110F0090BE
:1007500001DB112301E009F101030AAA01A90CA898
:10076000FFF7E4FEDDE90C70002609F10105834680
:1007700047E001204B4600904FF000470AAA01A92C
:100780000CA8FFF7D3FEDDE90DB00C995D460026FD
:1007900010B909F101000D18B9EB050003D4C0F13F
:1007A000FF3609F10105A5EB09002BE0B9F1010FB6
:1007B00001DA4FF001090020B9F1110F009048460D
:1007C00001DD112300E003460AAA01A90CA8FFF7E6
:1007D000ADFEDDE90C704D4600268346207800070B
:1007E0000AD4AB4500DA5D4601A8012D04DD4119AC
:1007F00011F8011C302907D04F4502DA17F1040F18
:1008000004DA012082460FE06D1EEEE7002F02DCC5
:10081000ED1B3E4403E0781CA84200DD7D1CB81BA4
:1008200000F1010A4FF000472078000703D4AA45E1
:1008300001DB4FF0FF3A0021B7F1004F0DF1430803
:100840008DF8431024D002202B23002F01DA7F42A1
:100850002D230A21021EA0F1010000DC5FB197FBED
:10086000F1FC97FBF1F201FB1C7C17460CF1300CFC
:1008700008F801CDEEE7A8F1010003702188090511
:1008800001D5452100E06521A0F1010800F8011C17
:1008900009980FA9A1EB0807FF1D00B1012041191C
:1008A00001EBEA70A1693844081A401EA061207863
:1008B000C00602D42046FFF729FD099828B1D4E9E3
:1008C00001219047206A401C20622078C00622D572
:1008D0002046FFF71BFD1EE0002E04DBB34502DDC2
:1008E00001A8805D00E03020D4E901219047206A12
:1008F000401C2062761CAAF101005FEA000A0AD1BE
:1009000000F092F8C0680168405CD4E9012190478A
:10091000206A401C2062281EA5F10105DCDC07E0EE
:10092000D4E9012118F8010B9047206A401C20628D
:10093000381EA7F10107F3DC2046FFF7FDFC03207A
:1009400011B043E601694A1C02610878704700B59E
:100950008FB0CDE901310021059105497944CDE9F8
:10096000031011466846FFF7F8FC0FB000BD000009
:10097000E5FFFFFF0A6802F8010B0A6070470000FC
:100980000FB4002300B589B00CA900910B99CB607E
:10099000204B7B440693204B7B44079304236FF04A
:1009A0000042CDE901321D4A7A446B460892024664
:1009B000002002F082FF09B05DF814FB70B5064616
:1009C0004FF0FF3015460C46324686B00091CDE917
:1009D000010169460020049004A8FFF7D1FF0346F7
:1009E0000498211825B108B10A4600E022462A6081
:1009F00000280DD0002B02DD0098884208D0324636
:100A0000081B69460094CDE9010404A8FFF7B8FF6C
:100A100006B070BDF30100000B0200004B010000A6
:100A2000004870472C020020004870474C0200200C
:100A3000004870472C020020034640688C4600287E
:100A400018BF88423CBF03464068F8D31868184472
:100A5000884207D00CF1030020F00700001D411A66
:100A6000521A0146081D0A60FFF715BC30B5B0F1F7
:100A70000A024FEA900E71F100034EEA817EB0EB5C
:100A80000E0061EB91014FEA101E4EEA017E10EB61
:100A90000E0041EB11114FEA102E4EEA016E10EBE1
:100AA0000E0041EB11214FEA104E4EEA014E10EBC1
:100AB0000E0041EB1141401841F100014FEAD00016
:100AC00040EA41704FEAD10110EB80054FEA810402
:100AD00044EA907444EB01046D1944EB0404521B86
:100AE000A3414FF0000348BF0A3200D530BD401C7F
:100AF00041F1000130BD10B5044600F001F9006875
:100B0000005D00F0010010BD2DE9F0411F460446D4
:100B100003260168072A01F4006004DB08B116A56A
:100B200005E016A503E008B115A500E015A521F024
:100B300010002060A069C01EA0610FB1401EA0611E
:100B40002046FFF7E3FB4FB1D4E901213846904737
:100B5000206A401C2062C01C206206E0206AFAE77E
:100B6000D4E9012115F8010B9047761EF8D22046F2
:100B7000FFF7E2FBBDE8F0814E414E006E616E0072
:100B8000494E4600696E6600426842B1016811F83C
:100B9000013B23B1521EC0E90012184670470121E3
:100BA000C160881E704742685AB1C368016843B982
:100BB00083688B4205D0491E521CC0E900120020F8
:100BC00070474FF0FF3070472DE9F04781461646D9
:100BD0008AB0334878440DC88DE80D003048784419
:100BE000801C03AC0DC884E80D0041F69B3008441E
:100BF000372190FBF1F290FBF1F5A5F1800501FBA7
:100C000012041B3C02D56442012000E00020DFF802
:100C100090A080460027FA44AAF1BE0A0DE0E00742
:100C200009D03246684607EB47010AEB810101F023
:100C300060F88DE8070064107F1C002CEFD1184F7E
:100C40007F44AC3F18E0E80714D007EB04100DF127
:100C5000180A90E80E008AE80E00C068F04201D140
:100C600098190890324606A903A801F042F803AB90
:100C700083E807006D10641C002DE4D132466946FC
:100C8000B8F1000F03A802D001F00BF801E001F069
:100C900030F8C9E90001C9F808200AB0BDE8F087BA
:100CA0009C2D000010B500F091FABDE8104000F056
:100CB00087BA70477546FFF7B3FEAE460500694632
:100CC000534620F00700854618B020B5FFF7A2FA7A
:100CD000BDE820404FF000064FF000074FF000083D
:100CE0004FF0000B21F00701AC46ACE8C009ACE8BE
:100CF000C009ACE8C009ACE8C0098D4670470000E7
:100D000010B5FFF791FE001D10BD00BF8D22000041
:100D10002DE9FF4F064689B00878FF2806D0491C08
:100D20002D2805D000244FF0000908E000200CE039
:100D30000124F8E709EB8903491C00EB4309087813
:100D4000FF28F7D114B1C9F10000814610780025C1
:100D50002C46AA4629462D2801D02B2804D1521C06
:100D60002D2813D0002082468B461078FF280FD004
:100D70004FF0000C0A21521CA5FB017804FB0181F5
:100D800005FB0C11C5194BEB0104EEE70120EAE766
:100D9000002108464FF00000BAF1000F02D000EB2E
:100DA00080004008C0F38158B8F1010F01DD4FF019
:100DB000FF380C9809EB000755EA040009D04FF002
:100DC000020917F5FA7F0BDA4FEACA70C6E900B0DC
:100DD00012E04FEACA70C6E900B00DB0BDE8F08F6E
:100DE000B7F5FA7F0DDDF0487844D0E90010C6E988
:100DF000001040EACA707060FFF71AFEC0F8009059
:100E0000EBE7391E02DAC8F1000200E0424600DAE0
:100E1000794206A8FFF7D8FE06AB93E8070003ABBC
:100E200083E8070044F23E005BEA04010090584664
:100E300004D144F21E012C465D460091210C0904A8
:100E4000014306D10099240444EA15442D041039C5
:100E5000009104F07F41014306D10099240244EA45
:100E600015642D020839009104F07041014306D148
:100E70000099240144EA15742D01091F009104F022
:100E80004041014306D10099A40044EA9574AD00A5
:100E9000891E009104F00041084304D100986D19A7
:100EA0006441401E009042466846002FCDE901454E
:100EB00003A902DD00F031FF01E000F006FFBAF106
:100EC000000F04460D4601D084F0004440F2FF7745
:100ED00024F00040284303D0C4F30A50B84212D192
:100EE000FFF7A6FDC0F80090C4F30A50B8420AD13B
:100EF000AE487844D0E90010C6E9001004F0004183
:100F00000843706069E7C6E9005466E72DE9FF4FC2
:100F10001F464FF0000A4FF0FF38454691B0D7E921
:100F20000146CDF83CA0FFF77FFDC0680168405C3A
:100F30001090B96912986D1C8847396A81468847B4
:100F40000028F6D1B9F1FF3F0AD0002E24F4D06476
:100F500011DDB9F12B0F08D0B9F12D0F0BD102E043
:100F6000404615B03AE744F48064B96912986D1CA4
:100F70008847761E8146600504A901D52D2000E032
:100F80002B20002E01F1010B0DF130088DF810001F
:100F90003FDDB9F1690F08D0B9F1490F05D0B9F1BA
:100FA0006E0F02D0B9F14E0F1CD13B4601A800953F
:100FB00080E85002DDE912126FF0020002F081FCBD
:100FC000C11CCED10EE0B96912986D1C88478146CC
:100FD0001398761E44F4007405600F98401C002E90
:100FE0000F9016DDB9F1300FEDD0B9F1780F02D0C6
:100FF000B9F1580F0DD10F9801280AD13B46CDE920
:101000000054DDE91212001F029602F058FCC11CC8
:10101000A7D1109989453ED144F0800406E0139988
:10102000681CAAF1010A44F400740860B9696D1CD7
:101030001298761E884730288146F0D02BE0109910
:10104000894505D1200603D4761E44F0800418E0BB
:10105000484601F0BEFD08B3761E0DF123018B4515
:1010600044F4007408D2A9F130000BF8010B2006FB
:1010700007D5AAF1010003E0200602D40AF101001D
:101080008246A00502D51399681C0860B9691298B8
:101090006D1C88478146002ED1DC53E0002E51DDC7
:1010A000B9F1650F02D0B9F1450F4BD1A00549D573
:1010B000B9696D1C1298761E24F440748847002E7E
:1010C00081460CDD2B2804D0B9F12D0F07D144F453
:1010D0008074B96912986D1C8847761E8146E005B8
:1010E00001D52D2100E02B2108F8011BCDF800804F
:1010F00021E0761E0DF13901884544F400740CD2CC
:10110000A9F1300010F0FF0088F8000002D100992A
:10111000884509D908F1010806E0E00501D5244811
:1011200001E042F20F708246B96912986D1C88473F
:10113000814613980560002E04DD484601F049FD04
:101140000028D6D1F96912988847FF2053468BF8BA
:10115000000088F8000000200A900B9004AA0CA957
:101160000AA8FFF7D5FDA00502D46FF00100F8E64C
:1011700014F0240F0AD0E00714D13868DDE90A1210
:10118000031D3B600068C0E900120BE00AA9684635
:1011900001F0C8FCE00705D13868009A011D3960EC
:1011A000006802602846DCE6C02B0000B62A00007A
:1011B000F1D8FFFF0446AFF300802046FFF716F892
:1011C000002801D001F00CBD7047000010B50128C7
:1011D00005D0002103A000F061F8012010BD09A195
:1011E000F8E7000053494752544D454D3A204F759A
:1011F00074206F662068656170206D656D6F72790F
:10120000000000003A2048656170206D656D6F72C6
:101210007920636F72727570746564004FF0013CE1
:1012200050F8042B51F8043B9A4221D1A2EB0C0355
:10123000934313EACC1317D150F8042B51F8043B15
:101240009A4215D1A2EB0C03934313EACC130BD1B2
:1012500050F8042B51F8043B9A4209D1A2EB0C033D
:10126000934313EACC13DBD04FF00000704700BF6C
:10127000D01A01BAB1FA81F101F0180122FA01F095
:10128000CB40C1F12001DBB2C0B2C01A2CFA01F38D
:10129000D11A914311EAC311E6D1704770B50546E2
:1012A0000C460A2000E06D1C00F011F835B12878DA
:1012B0000028F8D102E0641C00F009F814B120788D
:1012C0000028F8D1BDE870400A20AFF3008008B5CF
:1012D00069468DF800000320ABBE08BD2DE9FF4F25
:1012E0001F464FF03C0987B04FF00042DDE9141073
:1012F00001F10108DDF858A002EA405003900020F7
:1013000004908346054604460590B969461E089830
:101310008847AAF1010A0290BAF1000F37DD02985E
:101320002E2815D0102100F012FA00282ADB4FF0E9
:10133000010B0499014316D0B9F1000F0BDB4A46AB
:10134000C11700F0F1F905430C43A9F1040905E0C8
:101350000120059007E008B145F001050120049047
:10136000059800B9361DB969089808F10108884741
:10137000BBF1000FAAF1010A0290CDD00999C1F882
:101380000080C9E70298702808D0502806D0F96973
:1013900008988847BBF1000F14D04FE0002002905E
:1013A0000120BBF1000F049009D0B969089808F139
:1013B00001088847AAF10109B9F1000F07DCF969B2
:1013C000089888476FF001000BB0BDE8F08F2B281C
:1013D00004D02D280CD14FF0FF300490B969089843
:1013E00008F101088847A9F10109B9F1000FE6DD0C
:1013F000411CE4D00A2100F0AAF90028DFDB0299A1
:1014000008F1010801EB810100EB41000290B9698C
:10141000089888470A2100F09AF9099AA9F1010968
:10142000B9F1000FC2F8008001DD0028E7DAF969A0
:10143000089888470499029800FB016655EA040061
:1014400004D004F04041090002D006E0039898E07F
:10145000A40044EA9574AD00B61E04F000410800F3
:1014600002D16D196441761E159810F0240F03D037
:101470004FF00B095C4803E04FF028096FF07D0046
:101480008246564507DAAAEB06018944B9F1410FB5
:1014900001DD4FF0410901200021A9F1010200F016
:1014A00043F9024628400B462140084301D0012160
:1014B00000E00021501E029143F1FF3128402140FD
:1014C000084301D0012000E000200299834651EA40
:1014D0000B014FD0002108464FF00000039900F4A3
:1014E000400039B100EB80004FF4400100EBD070B8
:1014F00001EA60008015012802DD4FF0FF3000E0B6
:1015000013D0401C36D0029860B3BBF1000F0CD151
:101510004A460120002100F007F9284021400843F5
:1015200001D0012000E00020E0B101204A46002166
:1015300000F0FAF8034640190A4661412D1A8C4121
:1015400011D3B9F1400F09DD159810F0240F02D026
:10155000AAF1340603E0AAF1170600E0761C002584
:101560004FF0004406E05B1E42F1FF3220EA030523
:1015700021EA0204CAF10100B04206DA1B490398CD
:1015800008430190002000900EE0039AC4F3D32199
:10159000E80A0A43164940EA44500A433146CDE975
:1015A0000002684601F00AFB159810F0240F0BD0DA
:1015B0001598C00715D13868DDE90012031D3B609E
:1015C0000068C0E900120CE002A8694601F0AAFA1E
:1015D0001598C00705D13868029A011D3960006866
:1015E00002604046F0E6000002FCFFFF0000F07FD2
:1015F0000000F03F2DE9FF4F92461D4685B04FF0A9
:101600000041DDE9124BDDE914727F1E01EA4B5007
:10161000414940F0FF4940EA0108002122F0200042
:101620004928049102D04E2828D04CE03BA0012646
:1016300007C88DE80700A9690698641C88477F1EC3
:10164000014606D41DF8060018B121F020018142A0
:101650000BD0E96906988847032E34D0082E32D083
:101660006FF0010009B0BDE8F08F761C032E01D0A9
:10167000082EE0D1601CCAF80000DCE7A9690698D2
:10168000641C88477F1E2AD420F02000412826D1E0
:10169000A9690698641C88477F1E20D420F020008A
:1016A0004E281CD1A9690698641C88477F1E48F4FF
:1016B000002849F48009CAF8004001D4282806D03F
:1016C000E969069888475FEACB7012D022E0A969E1
:1016D0000698641C88477F1E01D4002803DAE96954
:1016E00006988847BCE72928F1D1641CCAF8004055
:1016F000E9E71BF0240F07D028680499031D2B602D
:101700000068C0E9001805E02868021D2A6000682A
:10171000C0F800902046A5E70000F07F494E4649FA
:101720004E49545900000000B2F120030AD5C2F11D
:10173000200301FA02F120FA03F300FA02F041EA71
:101740000301704700FA03F14FF0000070473A2898
:1017500000D2303820F02002412A01D3A2F1370014
:10176000884201D34FF0FF3070475FEA400C08BF5A
:1017700091F0000F4FEA8C234FEAC12243EA515106
:101780004FEA1C5018BF00F5F0404FEA300018BF78
:1017900041F000415FEA6C5C00F02980BCF1FF3F42
:1017A00008BF40F080407047130C06BF12044FF092
:1017B000100C4FF0000C130E04BF12020CF1080CB9
:1017C000130F04BF12010CF1040C930F04BF92001D
:1017D0000CF1020CD30F04BF52000CF1010C1146A6
:1017E0004FF00002A0F11F00A0EB0C00704711F0B9
:1017F000004F08BF704731F000413FF4D5AF0B0CEC
:1018000006BF09044FF0100C4FF0000C0B0E04BF84
:1018100009020CF1080C0B0F04BF09010CF1040CB8
:101820008B0F04BF89000CF1020CCB0F04BF4900E1
:101830000CF1010CCCF12003A0EB0C0022FA03F315
:1018400002FA0CF241EA030100F10100704720F0B6
:101850007F4C80EA030023F07F47ACEB070303F5DE
:101860007C5300F0004003F1FF032DE980494FEA6B
:10187000154B09B44FEA144325EA0B4E24EA0348FA
:101880000FF2042606EB132749083E785FEA32027E
:1018900003FB0667C7F5000707FB06F64FEA543758
:1018A0004FEAD64606F1020607FB066CCCF1005C57
:1018B0004FEA1C472CEA074C07FB06F40CFB06F525
:1018C00004EB15464FEA961634BF00204FF0004057
:1018D0004FEAD13706FB07FC4FEA1C4C0CFB0BF719
:1018E000D21B03FB0CF761EB07010CFB0EF7B0EB0F
:1018F000074072EB17420CFB08F734BFA2EB07421C
:10190000B2EB074261EB17414FEA0C444FEA9107F3
:1019100006FB07FC4FEA1C4C0CFB0BF7B0EBC74077
:1019200072EB573203FB0CF734BFA2EBC742B2EBAA
:10193000C74261EB57310CFB0EF7B0EBC70072EBFF
:1019400057720CFB08F734BFA2EBC702B2EBC70219
:1019500061EB5771039F4FEA816141EA921104EBF9
:10196000CC044FEAD1374FEA826206FB07FC42EA19
:1019700090124FEA80604FEA1C4C0CFB0BF7D21B15
:1019800003FB0CF761EB07010CFB0EF7B0EB074014
:1019900072EB17420CFB08F734BFA2EB0742B2EB25
:1019A000074261EB17414FEA8C554FEA910704EB70
:1019B0009C2406FB07FC4FEA1C4C0CFB0BF7B0EB1E
:1019C000C74072EB573203FB0CF734BFA2EBC742A0
:1019D000B2EBC74261EB57310CFB0EF7B0EBC7001F
:1019E00072EB57720CFB08F734BFA2EBC702B2EBE5
:1019F000C70261EB577115EB4C254FEA816141EA53
:101A000092114FEA82624FEAD13742EA901206FB06
:101A100007FC44F100044FEA80604FEA1C4C0CFBC9
:101A20000BF7D21B03FB0CF761EB07010CFB0EF766
:101A3000B0EB074072EB17420CFB08F734BFA2EB88
:101A40000742B2EB074261EB174115EB1C154FEA59
:101A5000813141EA92414FEA823242EA90424FEAB2
:101A600080304FEA0C7644F1000448EA03434EEA22
:101A70000B484FF0000EB2EB080C71EB030724BFCC
:101A8000624639464EEB0E0E4FF0000B00185241E5
:101A900049414BEB0B0BB2EB080C71EB03077BF1ED
:101AA000000B24BF624639464EEB0E0E4FF0000B82
:101AB0000018524149414BEB0B0BB2EB080C71EB98
:101AC00003077BF1000B24BF624639464EEB0E0E36
:101AD00051EA020718BF46F0010616EB0E7655F1E3
:101AE000000254F1000103D5BDE88901BDE800887A
:101AF000BDE88901BDE80048B619524141EB01013A
:101B0000A3F10103704780807F7E7D7C7B7A7978AA
:101B1000777676757473727171706F6E6E6D6C6CB2
:101B20006B6A6A6968686766666564646363626154
:101B30006160605F5F5E5E5D5D5C5C5B5B5A5A59D5
:101B40005958585757565655555554545353525241
:101B50005251515050504F4F4F4E4E4D4D4D4C4C99
:101B60004C4B4B4B4A4A4A494949484848474747E2
:101B7000474646464545454444444443434343421F
:101B8000424242414141000046EA0646A3F57053F5
:101B90004FEA164646EA42564FEAD22242EA4152FC
:101BA00010B54FEAD121A3F1010300F017F820F09E
:101BB000004000F1010C00F0004701EB005011461D
:101BC000BCF5006F40EA070000D210BD02484FF09C
:101BD000000140EA070010BD0000F07F002B26D472
:101BE000770021D01CB54FEA370703B44FF010003F
:101BF0004FF010014FF000000FBCBDE810400BF19A
:101C0000010BBBF1010F08BF5FEA170722BF12F1FA
:101C1000010211F101014FF0004143F1000300F016
:101C2000004043EA00007047F9D35708DAE746EA74
:101C3000064613F1400F4FEA16461FDD13F1200F41
:101C4000DFBF16430A46002120335B42C8D0C3F1F0
:101C5000200746EA064602FA07F74FEA164646EA22
:101C60000706C3F1200722FA03F201FA07F721FA67
:101C700003F14FF0000342EA0702B1E746EA020629
:101C800046EA06464FEA164646EA0106BCBF46EA61
:101C90000646360C4FF000034FF000024FF00001F3
:101CA0009EE72DE9C048934630B491E8380007C854
:101CB00031EA400C48BF34EA430C03D5FFF7C7FDB7
:101CC000FFF78CFFF0BCBDE800882DE9C0489346C3
:101CD00030B491E8380007C831EA400C48BF34EA14
:101CE000430C03D5FFF7B3FDFFF74EFFF0BCBDE893
:101CF00000882DE9C048934630B491E8380007C801
:101D000010F0804F08BF13F0804F03D100F019F896
:101D1000FFF764FFF0BCBDE800882DE9C04893469A
:101D200030B491E8380007C810F0804F08BF13F0B6
:101D3000804F03D100F005F8FFF726FFF0BCBDE8A7
:101D4000008820F07F4780EA030023F07F4C07EBF8
:101D50000C03A3F57C5300F00040A3F1FE0392F0C6
:101D6000000F00F0B38095F0000F00F077802DE9B0
:101D700001494FEA11404FEA144621EA004800FBAE
:101D800006FC24EA064708FB06F607FB08F800FBFA
:101D900007F718EB06484CEB164C4FEA124B18EBC2
:101DA00007484FEA15464CEB174022EA0B4E0BFB57
:101DB00006FC25EA06470EFB06F607FB0EFE0BFBAC
:101DC00007F71EEB064E4CEB164C4FF000061EEBD1
:101DD000074E4CEB174B18EB0B0840F1000018EBCB
:101DE0000E0B58EB000840F100008F1A4FF0000175
:101DF0003CBFC943661B14BFB5EB040C00213CBFBC
:101E0000C943F61B4FEA17444EEA8E0E27EA0445F3
:101E10004FEA1C4704FB07622CEA074C05FB07F757
:101E20000CFB05F604FB0CFC16EB074642EB1742D5
:101E300016EB0C4642EB1C421BEB060658EB02026B
:101E4000414146EA9E0601D5BDE80189B6195241D5
:101E500041EB0101A3F10103BDE801894FEA1445FB
:101E60004FEA114724EA054621EA074C05FB07F42F
:101E700006FB07F70CFB06F105FB0CFC11EB074119
:101E800044EB17444FEA124711EB0C4144EB1C445E
:101E900022EA074C05FB07F206FB07F70CFB06F6E8
:101EA00005FB0CFC16EB074642EB174216EB0C4603
:101EB00042EB1C456A1854F1000148BF7047B6193F
:101EC000524141EB0101A3F10103704795F0000F6E
:101ED00037D04FEA11424FEA144721EA024624EA7A
:101EE000074C02FB07F106FB07F70CFB06F402FBAD
:101EF0000CFC14EB074441EB17414FEA154714EB78
:101F00000C4441EB1C4125EA074C02FB07F506FB9C
:101F100007F70CFB06F602FB0CFC16EB074645EB3D
:101F2000174516EB0C4645EB1C42121951F1000106
:101F300048BF7047B619524141EB0101A3F10103BB
:101F400070474FEA14454FEA114724EA054621EA53
:101F5000074C05FB07F106FB07F70CFB06F24FF0F9
:101F6000000605FB0CFC12EB074241EB174112EB9C
:101F70000C4251EB1C4148BF7047921841EB0101E4
:101F8000A3F10103704700BFFEE700002DE9F04117
:101F900007460E4615462A2E12D02B2E04D02D2E83
:101FA00008D02F2E20D111E02946384601F07EF9C5
:101FB000044619E02946384601F0A8FB044613E020
:101FC0002946384601F0D6FA04460DE0002128469D
:101FD00001F09CFA02D10648BDE8F0812946384656
:101FE00001F0D2F9044600BF00BF2046F4E700002C
:101FF0000000C6C210B5012000F0A8FA10BD70475D
:1020000008B50121142000F029FCFF20ADF80000E4
:1020100010208DF8030003208DF80200694609485E
:1020200000F014F84FF46040ADF8000010208DF877
:10203000030003208DF802006946034800F006F80B
:1020400008BD000000080140001001402DE9F041EA
:10205000024600250026002000230024002791F8D6
:1020600003C00CF00F0591F803C00CF0100CBCF18C
:10207000000F03D091F802C04CEA050591F800C0AA
:10208000BCF1000F31D0146800202BE04FF0010CA0
:102090000CFA00F3B1F800C00CEA03069E4220D10E
:1020A00083004FF00F0C0CFA03F7BC4305FA03FC56
:1020B0004CEA040491F803C0BCF1280F06D14FF09C
:1020C000010C0CFA00FCC2F814C00AE091F803C03D
:1020D000BCF1480F05D14FF0010C0CFA00FCC2F81E
:1020E00010C0401C0828D1D31460B1F800C0BCF166
:1020F000FF0F34DD546800202EE000F1080C4FF093
:10210000010808FA0CF3B1F800C00CEA03069E427D
:1021100021D183004FF00F0C0CFA03F7BC4305FAF2
:1021200003FC4CEA040491F803C0BCF1280F05D16C
:1021300000F1080C08FA0CF8C2F8148091F803C0FA
:10214000BCF1480F07D100F1080C4FF0010808FA64
:102150000CF8C2F81080401C0828CED35460BDE8AB
:10216000F0810146886880B270470246002093687B
:102170000B400BB1012000E0002070474161704727
:1021800001617047C160704700BFFEE7002009E0B1
:10219000064941F830000649095C044A02EBC002D6
:1021A0001171401C1428F3DB704700004C00002024
:1021B000000000204FF0FF31C0F8901170474FF041
:1021C000FF314166704701462B290FD02D290DD0D4
:1021D0002A290BD02F2909D0282907D0292905D051
:1021E0003D2903D07E2901D0232901D10120704748
:1021F0000020FCE708B50121082000F02FFB10208B
:102200008DF803004FF47870ADF8000003208DF8CE
:10221000020069460848FFF719FF48208DF80300BF
:102220004FF47040ADF8000003208DF802006946BD
:102230000148FFF70BFF08BD000C014010B500245A
:102240000020994908609948FFF78BFF00F470401F
:10225000B0F5704F7ED01E2000F0FCFC9348FFF7D5
:1022600080FF00F47040B0F5704FF3D04FF4707100
:102270008E48FFF785FF20218C48FFF77FFF8B48B2
:10228000FFF76FFF00F47040B0F5E04F09D0B0F5F4
:10229000304F0AD0B0F5504F0BD0B0F5604F13D18E
:1022A0000EE000208249086013E0012080490860A8
:1022B0000FE002207E49086001207E49086008E0A6
:1022C00003207B49086004E0794800687849086089
:1022D00000BF00BF4FF468717448FFF751FF402101
:1022E0007248FFF74BFF7148FFF73BFF00F4704067
:1022F000B0F5E04F09D0B0F5304F0AD0B0F5504FEF
:102300000BD0B0F5604F10D10BE004206849086095
:1023100010E00520664908600CE00620644908606A
:1023200008E007206249086004E0614800686049ED
:10233000086000BF00BF4FF458715C48FFF720FFF2
:1023400080215A48FFF71AFF5848FFF70AFF00F4A8
:10235000704000E0A6E0B0F5E04F09D0B0F5304F96
:102360000AD0B0F5504F0BD0B0F5604F10D10BE054
:1023700008204F49086010E009204D4908600CE032
:102380000A204B49086008E00B204949086004E036
:10239000474800684649086000BF00BF4FF43871E5
:1023A0004248FFF7EDFE4FF480714048FFF7E6FE2C
:1023B0003E48FFF7D6FE00F47040B0F5E04F09D07C
:1023C000B0F5304F0AD0B0F5504F0BD0B0F5604F9C
:1023D00010D10BE00C203649086010E00D20344984
:1023E00008600CE00E203249086008E00F203049F8
:1023F000086004E02E4800682D49086000BF00BF57
:102400004FF4F0712948FFF7BBFE4FF400712748E5
:10241000FFF7B4FE2548FFF7A4FE00F47040B0F5C6
:10242000E04F09D0B0F5304F0AD0B0F5504F0BD087
:10243000B0F5604F13D10BE010201D49086013E088
:1024400011201B4908600FE01220194908600BE0B9
:1024500013201749086001201749086004E0144858
:1024600000681349086000BF00BF4FF470410F4877
:10247000FFF786FE4FF478710C48FFF77FFE04E00B
:10248000601CC4B20A2000F0E5FB322C07DA0748D2
:10249000FFF767FE00F47040B0F5704FF0D10120F7
:1024A0000149086010BD000044000020000C0140FC
:1024B000400000201C0000201800002010B538202B
:1024C00000F044F80C2000F041F8062000F03EF83F
:1024D000012000F03BF810BD70B504460E460EB961
:1024E000E5B202E004F14000C5B245F0800000F022
:1024F0002DF870BD10B5FF211248FFF743FE4FF4D1
:1025000000511148FFF73AFE4FF480410E48FFF7A3
:1025100037FE00BF4FF400410B48FFF731FE0520A6
:1025200000F098FB80210748FFF71FFE04464FF498
:1025300000410548FFF722FE04F080000028E9D1A1
:1025400010BD0000000801400010014010B5044615
:10255000FFF7D0FF4FF400510B48FFF70FFE4FF489
:1025600080410948FFF70AFE21460848FFF70AFEA6
:102570004FF400410448FFF703FE4FF400410248C6
:10258000FFF7FCFD10BD00000010014000080140F5
:1025900010B50446FFF7AEFF4FF400510B48FFF7AC
:1025A000EFFD4FF480410948FFF7E8FD2146084858
:1025B000FFF7E8FD4FF400410448FFF7E1FD4FF459
:1025C00000410248FFF7DAFD10BD00000010014095
:1025D0000008014000BFFEE7704702462B2914D0D7
:1025E00006DC28290BD029292DD02A2936D115E03F
:1025F0002D290BD02F2912D03D292FD119E0292ABE
:1026000001D19D2070473C20FCE700BF282A01D063
:102610003D2A01D13C20F5E73E20F3E700BF2A2AFE
:1026200003D02F2A01D0292A01D13E20EAE73C20FD
:10263000E8E7282A03D03D2A03D13D20E2E79D2088
:10264000E0E73E20DEE7282A02D03D2A04D101E05F
:102650003D20D7E79D20D5E73E20D3E700BFD1E757
:102660002DE9F04FFFB000241AA8FFF7A3FD68463C
:10267000FFF7A5FD3D21684600F0E1F84E48005DFA
:102680004E4908708DE04D480078FFF79CFD38BB3F
:102690001420FDF7D1FD054600BF4848007828709A
:1026A0006D1C761C641C4448005D44490870084653
:1026B0000078FFF788FD0028EFD000202870AD1BC0
:1026C000284600F090FA074600F07CFC824651460E
:1026D0001AA800F0A1F82846FDF7DDFD002660E00D
:1026E0003648007823280AD1354801681AA800F036
:1026F00093F8641C3048005D3049087051E0199926
:102700001DF801002D490978FFF767FF10F1630FED
:1027100044D03C282ED03D2837D03E2840D11AA89E
:1027200000F057F883461AA800F053F8814668462F
:1027300000F05AF805465A4629464846FFF726FC57
:1027400081462049484600F0E1FE0ED1FFF752FCD9
:102750001DA20021084600F04EF84FF47A7000F0F8
:1027600079FA18487FB0BDE8F08F49461AA800F002
:1027700053F815E011480178684600F060F8641CD1
:102780000D48005D0D4908700AE0684600F02CF81D
:10279000641C0948005D0949087001E00948E1E747
:1027A00000BF1998401C00287FF46DAF1AA97E98CD
:1027B00051F82000D6E70000EC000020480000207F
:1027C000140000200000C6C24572726F7200000043
:1027D00070470146D1F8902151F82200D1F890219C
:1027E000521EC1F89021704701464A6E885C4A6EBD
:1027F000521E4A66704770B505460E46144631466D
:102800002846FFF769FE03E014F8010BFFF7C0FE4E
:1028100020780028F8D170BD0246D2F890016428D3
:1028200002D16FF062007047D2F89001401CC2F8EC
:102830009001D2F8900142F820106320F3E702469D
:10284000506E642802D16FF062007047506E401CD9
:102850005066506E11546320F7E7000029B1064A14
:1028600092690243044B9A6104E0034A92698243ED
:10287000014B9A617047000000100240704710B58C
:1028800000F002F810BD00000CB50020019000908F
:102890003348006840F480303149086000BF304858
:1028A000006800F4003000900198401C01900098EE
:1028B00018B90198B0F5A06FF1D12948006800F46B
:1028C000003010B10120009001E00020009000983D
:1028D000012843D12348006840F0100021490860D6
:1028E0000846006820F0030008600846006840F0D1
:1028F000020008601A484068194948600846406864
:1029000048600846406840F4806048600846406877
:1029100020F47C1048600846406840F4E8104860A5
:102920000846006840F08070086000BF0C480068EE
:1029300000F000700028F9D00948406820F003003A
:10294000074948600846406840F00200486000BF00
:102950000348406800F00C000828F9D10CBD0000C5
:102960000010024000200240042808D14FF0E0216E
:10297000096941F004014FF0E022116107E04FF0D6
:10298000E021096921F004014FF0E0221161704754
:102990007047000010B51348006840F0010011496D
:1029A000086008464068104908400E4948600846DB
:1029B00000680E4908400B4908600846006820F48A
:1029C000802008600846406820F4FE0048604FF40C
:1029D0001F008860FFF753FF4FF000600449086054
:1029E00010BD0000001002400000FFF8FFFFF6FEDF
:1029F00008ED00E010B540F225511D4800F03EF80A
:102A000010B31B4800F064F8C4B21A48008800F400
:102A10000040C8B91748008800F4804060B10A2C13
:102A200003D000201349088020E01248008840F4B9
:102A300000401049088019E00D2C06D10D4800888F
:102A400040F480400B49088010E00A480088C0F339
:102A50000D0009490C5407480088401C05490880AE
:102A600008460088C72801DD0020088010BD00004E
:102A7000003801403C0000206401002070B502468F
:102A8000002400230025002040F66A16B14200D140
:102A900000BFC1F3421501F01F03012606FA03F33C
:102AA000012D02D19689334006E0022D02D1168A0B
:102AB000334001E0968A33400C12012606FA04F4F2
:102AC0001688344013B10CB1012000E0002070BD25
:102AD00001468888C0F30800704700BFFEE7490040
:102AE00050EAC12018BF04204A0D18BF40F0010071
:102AF00040F2FF72B2EB515F08BF40F002000128C4
:102B000008BF0520704740F2013200204FF0E0413D
:102B100000F0A5BE024A0020110700F0A0BE000090
:102B200001FDFFFF10B50446D1E9000100F002F8F5
:102B3000206010BDF8B504460D466A4600F0B0F8B6
:102B400000987E30009000281FDC002213462046AB
:102B5000294600F07DFA18D0002140F608004FF019
:102B6000000006462046294600F02CFA044640F6AE
:102B7000080006EA00014FF0000034F0004004BFF6
:102B80000220FDF7CCFC2046F8BD0098FF280DDBA5
:102B90000220FDF7C4FC002213462046294600F01F
:102BA00023FB8CBF04484FF0FF40F8BD2046294668
:102BB000BDE8F84000F006BA000080FF10B50446FA
:102BC0000A46D4E90003194600F096F8C4E900016A
:102BD00010BD30380A2801D201207047002070470C
:102BE000014600BF704730B583B00446FDF792FC44
:102BF00005460020CDE90000024621466846FDF763
:102C0000DDFE2846FDF78BFCDDE9000103B030BD99
:102C100010B56FF00400FFF7A7FE0A4800680A49E4
:102C2000B0FBF1F0094908700846007800EB40015C
:102C3000C1EBC0104FF6FF7101EAC00004490880E3
:102C400010BD00002000002000127A003400002097
:102C5000360000200146114A12884A434FF0E02313
:102C60005A6100229A611A46126942F001021A6101
:102C700000BF4FF0E022106900F001021AB100F429
:102C80008032002AF5D04FF0E022126922F00102D2
:102C90004FF0E0231A6100229A617047360000204D
:102CA00010B5144600222260114A21F000439342DD
:102CB000A8BF10BD53EA000208BF10BDB3F5801FC6
:102CC000A8BF226807DA362200F0C9FD6FF035028E
:102CD00021F000432260DFF81CC06FF31E510CEBA3
:102CE00023531A4441F0FF5141F00051226010BDBE
:102CF0000000F07F02FCFFFF2DE9F04106460C4684
:102D000040F2FF75174635EA14502BD000221346C7
:102D1000304600F09DF925D03A463046214600F075
:102D20009EFD06460C4635EA145010D0002213468C
:102D3000304600F08DF915D10220FDF7F0FBFFF7CA
:102D4000E9FE0A46214662F31E01BDE8F081022039
:102D5000FDF7E5FBFFF7D7FE0A46214662F31E01A9
:102D6000BDE8F08130462146BDE8F0810024002511
:102D7000FFF74EFFFFF73EFAFFF742F9FFF79EFB22
:102D8000FFF704FAD9E036E004E01E20FFF762FF07
:102D9000FFF754FA6948006818B9694800680028C4
:102DA000F3D000206549086066486749096800EB70
:102DB000C10002792046641C64490A546148624992
:102DC000096800EBC1000079232808D129466D1C51
:102DD000C8B25FA20021FFF70EFDED1C0BE05949C0
:102DE000594B1B6801EBC3010A1D29466D1CC8B273
:102DF0000021FFF700FD5748006818B950480068E7
:102E00000028C1D04E480068002875D1FFF728FC83
:102E100051490860002403E000204C490855641C17
:102E2000642CF9DB4D494C48006800F06FFB05D17C
:102E3000FFF7E0F80020484908600FE046480068C6
:102E400000F008FA064632460B4645A14648FDF713
:102E500049FA454A01210020FFF7CDFC0020044635
:102E600005463C49086004E01E20FFF7F3FEFFF72B
:102E7000E5F93248006818B9314800680028F3D0F5
:102E8000FFF7B8F800202D4908602E482E49096840
:102E900000EBC10002792046641C2C490A542948E1
:102EA0002949096800EBC1000079232808D1294687
:102EB0006D1CC8B226A20021FFF79DFCED1C3CE072
:102EC00020482149096800EBC10000797E2814D10F
:102ED000FFF790F8002403E000201C490855641C0B
:102EE000642CF9DB0020044605461A4908601349A2
:102EF00008601349086020E00CE01249124B1B687F
:102F000001EBC3010A1D29466D1CC8B20021FFF761
:102F100072FC12E0FFF76EF8002403E000200B497A
:102F20000855641C642CF9DB002004460546094959
:102F30000860024908600249086024E74400002054
:102F40001C0000204C00002040000020EC0000206D
:102F5000616E730018000020140000200000C6C23B
:102F60002531302E366600005001002010B50029B2
:102F70000AD00878002807D005487844FEF74EF9B3
:102F8000002801D0002010BD0248784410BD000088
:102F90003A0A0000320A000010B500290AD0087869
:102FA000002807D005487844FEF738F9002801D0FA
:102FB000002010BD0248784410BD00002A0A00001D
:102FC000220A000021F00042A2F16052B2F5801FF7
:102FD00001F0004328BFD2F17F6C0BD95FEA001CDF
:102FE00043EAC20242EB507018BF704728BF20F07E
:102FF00001007047B2F5801FBCBF184670474FEA0A
:10300000410C1CF5001F02D2084600F07ABB70B5D7
:1030100000F096F800000089FFF7F6BF4FF000407F
:10302000A0F580007047000002494FF0000000F05A
:10303000E4BB00BF0000F87F491058BFC1F1404118
:103040005B1058BFC3F140438B42EFF300807047E1
:1030500051EA030C17D41CF5801F58BFBCF5801F24
:1030600000F10680994218BF704708BF9042704730
:1030700007D711F5801F58BF13F5801F19D4994247
:103080007047894270471CF5801F08D5BCF5801F2A
:10309000F7D58B4218BF704708BF824270474FF484
:1030A000001C1CEB410F38BF1CEB430F01D28B42BD
:1030B000704770B500F044F8922449004FF0005179
:1030C0004FF08053FFF7B8BF51EA030C17D41CF53B
:1030D000801F58BFBCF5801F00F10680994218BFC1
:1030E000704708BF9042704707D711F5801F58BF3F
:1030F00013F5801F19D499427047894270471CF517
:10310000801F08D5BCF5801FF7D58B4218BF7047CC
:1031100008BF824270474FF4001C1CEB410F38BFC0
:103120001CEB430F01D28B42704770B500F008F8DA
:10313000922449004FF000514FF08053FFF77CBFBD
:103140000EF1020E2EF0030E5EF8046B364205D42B
:10315000012A43EB030515F5001F12D8012841EBA6
:10316000010C1CF5001F0CD80ED14FEAD17C15F5CF
:10317000001F0CEB4C0C0CF1020C08BF4CEBD37C89
:1031800004E04FF0080C01E04FEAD37C0CEB4C0557
:1031900026FA05F606F00706B6F1040C06D20EEB89
:1031A000860CBDE870404CF0010C6047DFE80CF085
:1031B000090B02024FF000414FF00000A1F5002181
:1031C00070BD19461046012851EB010418BFD4F513
:1031D000001484BF002001F0004170BD0808A0F574
:1031E00000114FEA3101704753EA010C17D41CF566
:1031F000801F58BFBCF5801F00F106808B4218BFAE
:10320000704708BF8242704707D713F5801F58BF29
:1032100011F5801F19D48B4270479B4270471CF5F3
:10322000801F08D5BCF5801FF7D5994218BF70479D
:1032300008BF904270474FF4001C1CEB430F38BF8F
:103240001CEB410F01D2994270470FB40CBC03BC78
:10325000FFF76BBF43004FEAD30C4FEA3C0C4340EF
:103260001FBF40070CF1605113F0FE4F70471CF078
:10327000006F03D100200CF0004170470CF00043B8
:1032800043EA507010B540EACC0000F0F4F900BFFA
:10329000000000924FEA0001FFF7A0BF4FF000418D
:1032A0004FF00000A1F500217047000090EA010FE7
:1032B00048BF81F0004100F13082421A3CBF801AC1
:1032C00089184FEAD0524FF07F4C1CEA410FA2EB15
:1032D000D15318BF9CEA026F00F03B804FF0004CC6
:1032E0004CEA00204CEA012121FA03FC10EB0C0C03
:1032F0001ED202F1FF325FEA1C2040EBC25038BF01
:1033000070471CF07F0F4FEA400C18BFBCF17F4F95
:1033100038BF7047C3F12003994008BF20F0010077
:10332000BCF17F4F38BF7047A0F1C04000F0E9B951
:103330004FEA3C00000A40EBC25028BF1CF0FF0FD0
:103340004FEA400CE6D018BFBCF17F4F38BF704742
:10335000EAE79CEA026F05D010EA5C0F08BF00F0B4
:103360000040704710B500F086F900BF64FBBE3E18
:10337000401058BFC0F14040491058BFC1F1404112
:103380008142EFF3008070474FF47F0C1CEAD012AB
:103390001EBF1CEAD11392EA0C0F93EA0C0F00F047
:1033A000858090EA010F48BF42F4807240F4000C1F
:1033B00041F400002CF07F4120F07F4000B58142B5
:1033C000A2EB03020FF2081CACEB504EC0F1000060
:1033D0009EF800E04FEA4E0E00FB0EFC38BF49009D
:1033E0004FEA2C1C02F5FA020CFB0EF34FEACE1E3C
:1033F0004FEA112C4FEAC1210EEB635E42EB2242F1
:103400000EFB0CFC4FEA1C5300FB03114FEA112C7E
:103410004FEA01310EFB0CFC4FEADC4C00FB0C11B7
:10342000C14228BF09184CEB03335DF804EB10EBE5
:10343000410143EBC250B2F57C0F38BF704729D52C
:1034400012F0F00F1CBF00F1C04000F000407047C8
:10345000008182838485868788898B8C8D8E8F916D
:103460009293959697999A9C9D9FA0A2A3A5A7A891
:10347000AAACAEB0B2B3B5B7B9BCBEC0C2C5C7C9BD
:10348000CCCED1D4D7D9DCDFE2E6E9ECF0F3F7FA21
:10349000FE0000004FEA400C0CF1807CBCF17E4F36
:1034A00028BF7047B0F1C04000F02BB990EA010F7F
:1034B0000CEAD11348BF42F48072624538BF6345BD
:1034C00007D213F47F0F16D080EA010000F000400D
:1034D000704710B500F0CFF8097EFC3E00F005B84B
:1034E00080EA010000F00040704780EA010000F02F
:1034F000004000F006B912F47F0F04BF0248704785
:1035000080EA010000F0FDB80000C07F50EA010C25
:1035100000F113801CF5000F58BFBCF5000F01D45B
:103520008842704707D710F5000F58BF11F5000FFC
:1035300015D488427047894270471CF5000F04D5A6
:10354000BCF5000FF7D5814270474FF0807C1CEB33
:10355000400F38BF1CEB410F01D28142704710B5BC
:1035600000F089F8922449004FF000504FF080514C
:10357000FFF7FEBE4FF47F0C1CEAD0121EBF1CEA00
:10358000D11392EA0C0F93EA0C0F00F0478090EAF7
:10359000010F48BF42F480724FF0004C4CEA00200B
:1035A0004CEA012102EB0302A0FB0113A2F5000289
:1035B000002918BF43F001035B0028BF4FEA330323
:1035C00042EB22425FEA132C4CEBC2502EBFBCEB05
:1035D000436FB2F57C0F70474FEA036CBCF1004FAC
:1035E00008BF20F00100B2F57C0F38BF70470BD543
:1035F00082F0FF0212F5803FC8BF704700F1C04063
:10360000D8BF00F00040704700F5000C5FEA4C0C9A
:1036100048BF7047B0F1C04000F073B890EA010FA6
:103620000CEAD11348BF42F48072624538BF63454B
:1036300004D280EA010000F00040704710B500F0AD
:103640001AF800BF8900013E00F007B800F009B881
:103650005FEA410C5FEA1C6C08D080EA010000F0D0
:1036600050B85FEA400C5FEA1C6CF6D14FF00040A6
:10367000A0F5800070470EF1020E2EF0030E5EF8EA
:10368000044B244204D44FEA4102B2F17F4F11D8D7
:103690004FEA4003B3F17F4F0CD80ED14FEAD07CF4
:1036A000B2F17F4F0CEB4C0C0CF1020C08BF4CEB51
:1036B000D17C04E04FF0080C01E04FEAD17C0CEB28
:1036C0004C0324FA03F404F00704B4F1040C06D20A
:1036D0000EEB840CBDE810404CF0010C6047DFE8B5
:1036E0000CF0070802024FF00040A0F5800010BD6A
:1036F0000846420018BFD2F1807288BF00F0004037
:1037000010BDFF2141EAD050C005704790EA010F7B
:1037100048BF81F000413FF5D0AD421A04D882F095
:103720000042A0EB020011444FEAD0524FF07F4C10
:103730001CEA410FA2EBD15318BF9CEA026F4AD09A
:103740004FF0004C4CEA00204CEA012121FA03FC26
:10375000B0EB0C0C0FD412F0FE0F36D05FEA4C0029
:103760001DD5001240EBC25038BF70471CF03F0F10
:1037700018BF70470BE0A2F101025FEA1C2040EB8A
:10378000C25038BF70471CF07F0F18BF7047C3F19D
:103790002003994014BF401E20F0010070478008AC
:1037A0004FEA122308BF7047B0FA80FCA2EB0C026C
:1037B000CCF1280C60FA0CF093EA122F04BF00EB56
:1037C000C25070474FEAC3707047130A5FEADC10BB
:1037D00008BF7047F6E79CEA026F04D010EA5C0F5E
:1037E00008BF0020704710B5FFF745FF40DFF63EE9
:1037F00081F000407047FCF76FBF0CF00F03092BFE
:1038000008BF082000F05F800A2B0BD0082B18BFE0
:10381000704708BF1CF0400F0AD04FF000004FF077
:10382000000170471CF0400F18BF4FF00040704778
:103830001CF0100F08D020F0704300F07F4242EAE5
:10384000D3014FEA4370704700F0604021F07F429F
:1038500042EA000201F07F4040EA727070474FF088
:10386000FF0C4CF4E06C1CEA11531CBF9CEA030CE7
:103870009445C2BFDA4201EB02517047002B0DD0D4
:10388000BCF1000F0FD0002A01F00041A4BF41F0AD
:10389000E04141F07F614FF00000704701F00041CE
:1038A0004FF00000704750EA01334FF09B0C18BFF7
:1038B0004CF0806C7FF4B8AB7047FDF727BBFDF789
:1038C0000DBDFDF797BE1CF4801F11D01CF4E02F36
:1038D00003D06FEACC31490070474FF04050EFF30E
:1038E000008222F0704242EA000282F300887047B0
:1038F0004FF000007047000002400000000000A0F0
:103900000000000005400000000000C800000000AA
:103910000C4000000000409C000000001940000026
:103920000020BCBE0000000034400000BFC91B8E58
:1039300000000004B5400000504BCFD06607E2CF36
:10394000010000006C4100003E8251AADFEEA73466
:1039500001000000D9420000DCB5A0E23A301F9718
:10396000FFFFFFFFB4450000FD25A0C8E9A3C14F3C
:10397000FFFFFFFFFF3F000000000080000000008D
:10398000FF3F00000000008000000000E03A000857
:10399000000000204C0000006C0100082C3B0008D7
:1039A0004C000020440800008801000800000000CE
:1039B0000000F07F1C00000043000000F8FFFFFF44
:1039C0000C0000000E0000000F0000002E000000A0
:1039D0001001000043000000F8FFFFFF00404040DE
:1039E00040404040404041414141414040404040D2
:1039F000404040404040404040404040400502027E
:103A0000020202020202020202020202022020203C
:103A10002020202020202002020202020202909098
:103A20009090909010101010101010101010101096
:103A300010101010101010100202020202028888EA
:103A400088888888080808080808080808080808F6
:103A500008080808080808080202020240000000DE
:103A60000000000000000000000000000000000056
:103A70000000000000000000000000000000000046
:103A80000000000000000000000000000000000036
:103A90000000000000000000000000000000000026
:103AA0000000000000000000000000000000000016
:103AB0000000000000000000000000000000000006
:103AC00000000000000000000000000000000000F6
:103AD00000000000000000000000000000000000E6
:103AE00028297E2F3738392A3435362D3132332B79
:103AF0002E30233D00000000000000000000000008
:103B000000A24A04000000000000000001020304BB
:103B10000607080900000000000000000000000087
:0C3B200000000000000000000000000099
:04000005080001F9F5
:00000001FF
